:020000040800F2
:1000000028F60020F92E0008912F0008932F0008F1
:10001000972F00089B2F00089F2F0008000000006A
:10002000000000000000000000000000A52F0008F4
:10003000A32F000800000000A72F000803350008C8
:10004000A92F00086F330008AB2F0008AD2F000860
:10005000AF2F0008B12F0008B32F0008B52F0008FC
:10006000B72F0008B92F0008BB2F0008BD2F0008CC
:10007000BF2F0008C12F0008C32F0008C52F00089C
:10008000C72F0008C92F0008CB2F0008CD2F00086C
:100090007B330008CF2F0008D12F0008FF31000864
:1000A000D32F0008EDB70008D52F0008D72F000880
:1000B00005B50008ABB20008A5BA0008D92F0008A2
:1000C000DB2F0008DD2F0008DF2F0008E12F0008DC
:1000D000E32F00083F310008E52F0008E72F000854
:1000E0005D320008E92F0008EB2F0008ED2F000813
:1000F000EF2F0008F12F0008F32F0008F52F00085C
:10010000F72F0008F92F000801300008FB2F000826
:10011000FD2F0008FF2F00080D30000803300008F5
:100120000530000807300008093000080B300008CF
:1001300000F002F800F05AF80AA090E8000C82449F
:100140008344AAF10107DA4501D100F04FF8AFF27C
:10015000090EBAE80F0013F0010F18BFFB1A43F0A5
:10016000010318471C2701003C2701000A444FF0F7
:10017000000C10F8013B13F0070408BF10F8014B06
:100180001D1108BF10F8015B641E05D010F8016B4B
:10019000641E01F8016BF9D113F0080F1EBF10F8AF
:1001A000014BAD1C0C1B09D16D1E58BF01F801CBD2
:1001B000FAD505E014F8016B01F8016B6D1EF9D555
:1001C0009142D6D37047000000230024002500266A
:1001D000103A28BF78C1FBD8520728BF30C148BFAA
:1001E0000B6070471FB51FBD10B510BD11F0C6FFE5
:1001F0001146FFF7F7FF02F091FE11F0E4FF03B4A0
:10020000FFF7F2FF03BC11F0EBFF000010B504464E
:10021000D749601A8C422BD006DCD648204498B1CE
:10022000B0F5806F38D119E0B0F5806F2AD0B0F505
:100230006C4F31D10121880301F044F900214FF4C2
:10024000804001F03FF928E00121480401F047F91E
:1002500000214FF4003001F042F91EE00121880432
:1002600001F03DF900214FF4802001F038F914E04D
:100270000121C80401F033F900214FF4002001F0FE
:100280002EF90AE00121080501F029F900214FF4B7
:10029000801001F024F900E000BF00BF10BD2DE97F
:1002A000F04786B005460E460024A24600BF00BFB8
:1002B00000272F462C8A4CF6FF700440F088044338
:1002C0002C82AC894EF6F3100440B0883189084383
:1002D000718908430443AC81AC8A4FF6FF40044067
:1002E000B0890443AC8201A801F065F8A2488742B6
:1002F00002D1DDF810A001E0DDF80CA00AEBCA0085
:1003000000EB0A1031688900B0FBF1F86420B8FBFB
:10031000F0F004012009642101FB1089322000EB78
:100320000910B0FBF1F000F00F0004432C8106B07F
:10033000BDE8F0874FF41651016000218180C18033
:1003400001810C21418100218181704710B5024655
:100350000020108A4FF2FF0318400B884C8823437B
:100360008C882343CC8823431843108210BD00217E
:10037000018041808180C180704721B1828942F42F
:100380000052828104E082894DF6FF731A40828117
:100390007047F0B5034600240026002500201846CB
:1003A000C1F3421401F01F06012707FA06F5012CDC
:1003B00001D10C3004E0022C01D1103000E01430E7
:1003C0001AB107682F43076002E00768AF43076070
:1003D000F0BD1AB1838A0B43838202E0838A8B4388
:1003E00083827047028A4FF6F0731A400282028AB3
:1003F0000A430282704782894FF2FF731A4082815A
:1004000082890A438281704721B1828942F00202C7
:10041000828104E082894FF6FD731A408281704721
:10042000028A4FF6DF731A400282028A0A4302826E
:10043000704721B1028A42F48042028204E0028ABB
:100440004BF6FF731A4002827047C1F308028280A4
:10045000704701468888C0F308007047818941F0E1
:10046000010181817047028BD2B20283028B42EA82
:10047000012202837047028B02F47F420283028BC7
:100480000A430283704721B1828A42F020028282AD
:1004900004E0828A4FF6DF731A408282704721B1EE
:1004A000828A42F01002828204E0828A4FF6EF7361
:1004B0001A408282704721B1828A42F00802828209
:1004C00004E0828A4FF6F7731A4082827047828A6C
:1004D0004FF6FB731A408282828A0A4382827047F7
:1004E00021B1828A42F00202828204E0828A4FF6BF
:1004F000FD731A40828270470246002013880B4029
:100500000BB1012000E000207047CA430280704711
:1005100070B502460B460024002100250020C3F3DD
:10052000421503F01F01012606FA01F1012D02D147
:100530009689314006E0022D02D1168A314001E051
:10054000968A31401C12012606FA04F416883440BB
:1005500011B10CB1012000E0002070BD10B50022E7
:1005600000230A1201249440A3B2DC43048010BD8E
:10057000004C004000BCFFBF00380140FD49096845
:1005800001F03801FB4A116011460968014311600E
:100590007047F849096821F00801F64A11601146D0
:1005A0000968014311607047F249096821F01001A0
:1005B000F04A116011460968014311607047EE4826
:1005C000EC494860ED4848607047EA48006940F0EF
:1005D0008000E849086170470420E649C96801F0D5
:1005E000010109B101200EE0E249C96801F00401EE
:1005F00009B1022007E0DF49C96801F0100109B123
:10060000032000E00420704708B500200090FF2080
:10061000009002E00098401E009000980028F9D158
:1006200008BD70B504460425FFF7D6FF054605E072
:10063000FFF7EAFFFFF7D0FF0546641E012D01D149
:10064000002CF5D104B90525284670BD70B50546C6
:10065000042440F6FF70FFF7E4FF0446042C19D190
:10066000C448006940F00200C2490861084645617B
:10067000006940F04000086140F6FF70FFF7D1FFCD
:100680000446012C06D0BB48006941F6FD710840C4
:10069000B8490861204670BD10B5042440F6FF70CB
:1006A000FFF7BFFF0446042C18D1B248006940F0A0
:1006B0000400B04908610846006940F04000086144
:1006C00040F6FF70FFF7ADFF0446012C06D0A948A5
:1006D000006941F6FB710840A6490861204610BD3B
:1006E00010B5042440F6FF70FFF79BFF0446042C6E
:1006F0003BD1A1489F498860A048886008460069AE
:1007000040F0200008610846006940F040000861A0
:1007100040F6FF70FFF785FF0446042C1CD1954876
:10072000006941F6DF710840924908610846006996
:1007300040F010000861A520914908800F20FFF7C4
:1007400070FF0446012C10D08A48006941F6EF7111
:1007500008408849086108E0012C06D085480069F6
:1007600041F6EF71084083490861204610BD70B51D
:1007700005460E4604240F20FFF753FF0446042CC1
:1007800025D17C48006940F001007A4908612E803B
:100790000F20FFF746FF0446042C0FD1300C688071
:1007A0000F20FFF73EFF0446012C10D0714800696E
:1007B00041F6FE7108406F49086108E0012C06D03F
:1007C0006C48006941F6FE7108406A49086120469C
:1007D00070BD70B505460E4604240F20FFF721FFBB
:1007E0000446042C13D16348006940F001006149BC
:1007F00008612E800F20FFF714FF0446012C06D05D
:100800005C48006941F6FE7108405A49086120467B
:1008100070BD70B505460E4604240F20FFF701FF9A
:100820000446042C17D154485249886053488860C4
:100830000846006940F0100008612E800F20FFF785
:10084000F0FE0446012C06D04A48006941F6EF71DB
:10085000084048490861204670BD2DE9F04704462C
:100860004FF6FF763746B046B1460425E443E6B27C
:10087000C4F30727C4F307484FEA14690F20FFF7B2
:10088000D0FE0546042D40D13B483A4988603B489C
:1008900088600846006940F010000861FF2E06D00D
:1008A0003748083006800F20FFF7BBFE0546042DB1
:1008B00008D1FF2F06D032480A3007800F20FFF7FB
:1008C000B0FE0546042D0AD1B8F1FF0F07D02C4821
:1008D0000C30A0F800800F20FFF7A3FE0546042D82
:1008E0000AD1B9F1FF0F07D025480E30A0F80090CB
:1008F0000F20FFF796FE0546012D06D01D48006922
:1009000041F6EF7108401B4908612846BDE8F087B1
:1009100070B50546042440F6FF70FFF782FE0446DA
:10092000042C4AD11448134988601448886008464A
:10093000006940F0200008610846006940F040006E
:10094000086140F6FF70FFF76CFE0446042C2BD1C3
:100950000848006941F6DF71084006490861084609
:10096000006940F01000086165B10020044908806A
:100970000BE000000020024023016745AB89EFCD6A
:1009800000F8FF1FA5204549088040F6FF70FFF7DB
:1009900048FE0446012C10D04148006941F6EF7131
:1009A00008403F49086108E0012C06D03C48006936
:1009B00041F6DF7108403A490861204670BD2DE9D3
:1009C000F04107460D4616460424364834498860EF
:1009D000354888600F20FFF724FE0446042C1AD106
:1009E0002F48006940F010002D49086147EA0500D2
:1009F000304340F0F8002949891C08800F20FFF798
:100A000010FE0446012C06D02548006941F6EF711E
:100A10000840234908612046BDE8F0812048C069AC
:100A2000800870471E48006A704700201C49C96949
:100A300001F0020109B1012000E000207047002010
:100A40001749096801F0200109B1012000E00020E8
:100A5000704729B1124A12690243114B1A6104E02E
:100A60000F4A126982430E4B1A61704701460020FB
:100A7000012908D10A4AD26902F001020AB1012013
:100A800008E0002006E0064AD2680A400AB10120C8
:100A900000E0002070470249C860704700F8FF1F5F
:100AA0000020024023016745AB89EFCD10B5044615
:100AB000C549601A8C422FD009DCC448204480B15B
:100AC000B0F5806F16D0B0F5006F4AD11BE0B0F5DD
:100AD000806F2AD0B0F5006F30D0B0F5406F40D1B4
:100AE00035E00121042000F0EDFC0021042000F09D
:100AF000E9FC37E00121082000F0E4FC0021082097
:100B000000F0E0FC2EE00121102000F0DBFC0021D1
:100B1000102000F0D7FC25E00121202000F0D2FCBD
:100B20000021202000F0CEFC1CE00121402000F03C
:100B3000C9FC0021402000F0C5FC13E00121802009
:100B400000F0C0FC0021802000F0BCFC0AE0012184
:100B5000080200F0B7FC00214FF4807000F0B2FCF6
:100B600000E000BF00BF10BD10B50121084600F035
:100B7000A9FC0021012000F0A5FC10BD2DE9F041E9
:100B8000024600250026002000230024002791F8BB
:100B900003C00CF00F0591F803C00CF0100CBCF171
:100BA000000F03D091F802C04CEA050591F800C08F
:100BB000BCF1000F30D0146800202AE04FF0010C87
:100BC0000CFA00F3B1F800C00CEA03069E421FD1F4
:100BD00083004FF00F0C0CFA03F7BC4305FA03FC3B
:100BE0004CEA040491F803C0BCF1280F05D14FF082
:100BF000010C0CFA00FCC2F814C091F803C0BCF15F
:100C0000480F05D14FF0010C0CFA00FCC2F810C0DF
:100C1000401C0828D2D31460B1F800C0BCF1FF0F0B
:100C200034DD546800202EE000F1080C4FF001087C
:100C300008FA0CF3B1F800C00CEA03069E4221D179
:100C400083004FF00F0C0CFA03F7BC4305FA03FCCA
:100C50004CEA040491F803C0BCF1280F05D100F15F
:100C6000080C08FA0CF8C2F8148091F803C0BCF123
:100C7000480F07D100F1080C4FF0010808FA0CF8F2
:100C8000C2F81080401C0828CED35460BDE8F08123
:100C90004FF6FF710180022181700421C1707047FD
:100CA0000246002093680B400BB1012000E00020B9
:100CB00070470146886880B2704702460020D368BA
:100CC0000B400BB1012000E0002070470146C868CE
:100CD00080B2704701617047416170470AB101619C
:100CE00000E041617047C16070474FF480320A43B1
:100CF0008261816182618269826970470246002057
:100D0000334B18684FF68073184040EA02100843CE
:100D10002F4B186070472F49C8617047F0B50A46DD
:100D20000023002400210025294E7168C0F30345EB
:100D300083B200F44016B6F5401F08D121F070616F
:100D4000234E766826F07066214F7E6012E000F434
:100D50008016B6F5801F06D1032606FA05F4A143D6
:100D600041F0706106E0460D360103FA06F6B14324
:100D700041F0706122B1460D360103FA06F63143A7
:100D8000134E7160F0BD30B500228B071C0F0F238E
:100D900003FA04F20E4B08338C1053F824309343BB
:100DA0000B4C08348D1044F8253023468C1053F832
:100DB00024308C07240F00FA04F42343044C083435
:100DC0008D1044F8253030BD0014014000F8FEBFFE
:100DD00000000140000020420020411EED4A116049
:100DE0000A09EC498039C1F88420411E4FF0E02205
:100DF000C2F880120A09E8490A6000BF04E0002234
:100E0000E64941F82020401C0F28F8D37047002005
:100E10004FF02061E24A11600021121D1160E1498A
:100E2000121D11600021121D1160121D116000BF02
:100E300005E00022DA49143141F82020401C032843
:100E4000F7D30021D64A20321160491E121D1160CD
:100E5000121D1160121D11607047D2490143D04A22
:100E6000083211607047F0B50021002200230025F0
:100E70000F24C678002E35D0C94E0836366806F4E1
:100E8000E066C6F5E066310AC1F10405CC4046785B
:100E900006FA05F186782640314309010678B6073F
:100EA000F60EB140BD4E0778BF1056F827200678E1
:100EB000B607F70EFF2606FA07F39A4319400A43CE
:100EC000B64E0778BF1046F82720067806F01F07B1
:100ED0000126BE4007787F11BF0007F1E027C7F861
:100EE00000610BE0067806F01F070126BE40A94FFF
:100EF00090F800C04FEA6C1C47F82C60F0BD002150
:100F0000017041708170C170704710B501F0DDFF54
:100F100010BD10B501F0D7FF10BD10B501F0DAFF1C
:100F200010BD10B501F0D8FF10BD10B5044620016A
:100F300001F0D7FF10BD10B501F0D6FF10BD9848E5
:100F40000068C0F30930704710B501460020002248
:100F500001F01F04012303FA04F28E4B80334C117D
:100F600053F824301340934201D1012000E00020C7
:100F700010BD8D490860704700F01F0201219140AB
:100F8000854A121F431142F82310704784480068B5
:100F9000C0F30900704710B501460020002201F09F
:100FA0001F04012303FA04F27B4B7C334C1153F8EA
:100FB00024301340934201D1012000E0002010BDF5
:100FC0007748001F00687047784A0A400243744B14
:100FD0001B1D1A6070477348001D71490831086075
:100FE00070477048401C6E4908310860704739B13D
:100FF0006B4A0C3212680243694B0C331A6006E0EC
:10100000674A0C3212688243654B0C331A60704792
:1010100010B5002200F01F04012303FA04F239B1D5
:101020005F4B20331B6813435D4C2034236006E084
:101030005B4B20331B689343594C2034236010BD15
:10104000F0B503460C4615460020FF22002600217D
:10105000534F08373F6807F4E067C7F5E067390A80
:10106000C1F10400CA4004FA00F105EA020739435D
:10107000090103F0C0008009C3F30122D700B94081
:101080004FEAC20CFF2707FA0CF6454F143757F802
:101090002070B743DFF808C10CF1140C4CF8207035
:1010A000674657F820700F434CF82070F0BD10B51C
:1010B0000246002000230021910A01F00F010124C3
:1010C00004FA01F1364C2034246804EA01038B420F
:1010D00001D1012000E0002010BD002100F01F011F
:1010E0002F4A126801238B401A432D4B1A60704718
:1010F00010B5002100F01F01294A12684B1E01247F
:101100009C402243264B1A6010BD10B502460020B9
:1011100000230021C2F38331012404FA01F1204CA1
:101120002034246804EA01038B4201D1012000E04D
:10113000002010BD30B50146002000220023C1F37D
:101140008142C1F301531AB9154C2834206811E0CB
:10115000012A0CD1124C24342468DD0024FA05F055
:10116000022B02D000F00F0004E0C0B202E00C4CF1
:101170002C34206830BD014600200022C1F380528B
:101180001AB9074B3033186802E0054B343318683E
:101190007047000080E100E084E200E000E400E04D
:1011A00004ED00E00000FA0500EF00E080FFFF1F03
:1011B000E048006840F00100DE49086008464068E9
:1011C000DD490840DB49486008460068DB490840C3
:1011D000D84908600846006820F480200860084666
:1011E000406820F4FE004860002088607047D149C4
:1011F000096821F48031CF4A11601146096821F451
:1012000080211160B0F5803F03D0B0F5802F0ED162
:1012100006E0C849096841F48031C64A116007E018
:10122000C449096841F4A021C24A116000E000BF2E
:1012300000BF704710B501460022002300204A116C
:10124000012A02D1BB4C236806E0022A02D1B94C24
:10125000236A01E0B74C636A01F01F020124944045
:101260001C400CB1012000E0002010BD10B500248E
:1012700000BF3120FFF7DEFFB1490870B1480068B8
:10128000401CB0490860AE48007828B9084600689C
:1012900040F2FF118842ECD13120FFF7CBFF08B1BB
:1012A000012400E00024204610BD01460020A14A90
:1012B000106820F0F80040EAC10010607047A249B1
:1012C00008607047024600209A4B586820F47C1052
:1012D00042EA01031843974B586070479A490866E1
:1012E000704701460020934A506820F003000843ED
:1012F000506070478F48406800F00C00704701460E
:1013000000208C4A506820F0F0000843506070477D
:1013100001460020874A506820F4E060084350608E
:10132000704701460020834A506820F4605040EA2C
:10133000C1005060704729B17E4A527A02437D4B0A
:101340005A7204E07B4A527A82437A4B5A7270474F
:101350007D49D8310860704701460020754A5068C1
:1013600020F440400843506070470021714A203209
:101370001170704A82F82010012802D004280AD186
:1013800004E001216B4A2032117005E00521694A11
:101390002032117000E000BF00BF70476B49086049
:1013A00070476449096A0143624A1162704767499C
:1013B00044390860704730B5002100220024002322
:1013C0005C4D6D6805F00C0121B1042905D0082998
:1013D00023D105E05E4D056022E05D4D05601FE014
:1013E000544D6D6805F47012022505EB9242514D83
:1013F0006D6805F480341CB9564D554305600BE00B
:101400004C4D6D6805F400351DB1524D55430560D6
:1014100002E04F4D5543056002E04D4D056000BFB1
:1014200000BF444D6D6805F0F00109094A4D6B5C41
:101430000568DD4045603F4D6D6805F4E061090ACF
:10144000454D6B5C4568DD4085603A4D6D6805F43F
:101450006051C90A404D6B5C4568DD40C560354D43
:101460006D6805F44041890B3C4D6B5CC568B5FB6C
:10147000F3F5056130BD29B12E4A526902432D4B67
:101480005A6104E02B4A526982432A4B5A617047E1
:1014900029B1284A92690243264B9A6104E0254A01
:1014A00092698243234B9A61704729B1214AD269DC
:1014B0000243204BDA6104E01E4AD26982431D4B8D
:1014C000DA61704729B11B4AD2680243194BDA60CE
:1014D00004E0184AD2688243164BDA60704729B19B
:1014E000144A12690243134B1A6104E0114A12694B
:1014F0008243104B1A6170471449403908607047A5
:101500001149C86470470B49C87170470948406A5F
:1015100040F0807007494862704701460020054A44
:1015200092680A400AB1012000E00020704701499A
:1015300088727047001002400000FFF8FFFFF6FEBF
:1015400000000020040000200000424280044242CB
:1015500000127A0000093D006C2801087C2801086F
:1015600010B50446CB48204478B1B0F5806F16D052
:10157000B0F5784F1DD101210803FFF7A3FF00212B
:101580004FF48050FFF79EFF14E001218803FFF71E
:10159000A6FF00214FF48040FFF7A1FF0AE00121E0
:1015A000C803FFF79CFF00214FF40040FFF797FFAF
:1015B00000E000BF00BF10BD10B50022028802F499
:1015C00041520B884C8823438C882343CC88234387
:1015D0000C8923434C8923438C892343CC8923439F
:1015E0001A430280838B4FF2FF74234083830B8A5C
:1015F000038210BD2DE9F04786B005460C464FF03A
:10160000000902274FF000084FF0010A0026A88BBE
:101610004FF240010840A88302202884B5F81C90AE
:101620002089022801D100BF31E0A08810B94FF015
:10163000010A01E04FF0020A01A8FFF7BCFEE088B2
:10164000B0F5007F0AD1019800EB800040002189AD
:101650000902B0FBF1F0401D86B20BE04FEA4A10E0
:1016600021894843019901EB81014900B1FBF0F068
:10167000401D86B20A20B6FBF0F606F00108A6EB84
:101680000800C0F34F074FF6FF7000EA0828022F4A
:1016900001DBFF2F02DD02274FF0000847EA0800B8
:1016A000E18808432884208840F40060618808436A
:1016B000A18808436189084340EA0909A5F81C90FC
:1016C00006B0BDE8F0870021018041808180C180A3
:1016D000018141818181C1810721018270470021FF
:1016E000018041808180C1800221018100214181EE
:1016F000704721B1028842F04002028004E0028873
:101700004FF6BF731A400280704721B1828B42F4BA
:101710008062828304E0828B4FF6FF331A4082831B
:10172000704730B5002400230C110125A540ABB251
:101730001AB185881D43858002E085889D43858098
:1017400030BD1AB183880B43838002E083888B43CA
:1017500083807047818170470146888970474FF6C2
:10176000FF62914204D0028842F48072028004E059
:1017700002884FF6FF631A400280704721B18288C9
:1017800042F00402828004E082884FF6FB731A4024
:101790008280704702884FF2FF731A4002800288ED
:1017A0000A4302807047018841F4805101807047EC
:1017B00021B1028842F40052028004E002884DF612
:1017C000FF731A400280704702460020012901D0B1
:1017D000108B00E0908A70470146088A7047B1F587
:1017E000804F04D1028842F48042028004E00288E3
:1017F0004BF6FF731A40028070470246002013899F
:101800000B400BB1012000E000207047202905D1DA
:101810000289028842F04002028007E0402901D09C
:10182000082901D1028901E0CA4302817047F0B55D
:101830000246002000240023002501F00F070126A6
:10184000BE40B4B20B1101269E40B3B2968806EAA0
:1018500003051689264016B10DB1012000E00020D5
:10186000F0BD10B50022552905D10389038843F046
:10187000400303800CE0562901D0532901D103898C
:1018800006E001F00F040123A3409AB2D343038181
:1018900010BD000000C8FFBF042808D14FF0E021B0
:1018A000096941F004014FF0E022116107E04FF0B7
:1018B000E021096921F004014FF0E0221161704735
:1018C0004FF0E02148617047012808D14FF0E02136
:1018D000096941F001014FF0E02211610EE0811C25
:1018E00041B94FF0E021096921F001014FF0E022F8
:1018F000116103E000214FF0E0229161704740B197
:101900004FF0E021096941F002014FF0E02211613E
:1019100007E04FF0E021096921F002014FF0E022D9
:10192000116170474FF0E0208069704710B50146A3
:10193000002200230020CB10022B03D14FF0E02423
:10194000226902E04FF0E024E26901248C40144057
:101950000CB1012000E0002010BD000010B50446CD
:10196000F749601A8C4245D00CDCB4F1804F1DD091
:10197000F448204418B3B0F5806F29D0B0F5006F5B
:1019800054D12EE0B0F5806F3DD0B0F58E3F03D03E
:10199000B0F5923F4AD13FE00121C802FFF792FD26
:1019A00000214FF40060FFF78DFD40E00121084663
:1019B000FFF795FD00210120FFF791FD37E00121A0
:1019C0000220FFF78CFD00210220FFF788FD2EE0AA
:1019D00001210420FFF783FD00210420FFF77FFD94
:1019E00025E001210820FFF77AFD00210820FFF7FC
:1019F00076FD1CE001211020FFF771FD0021102071
:101A0000FFF76DFD13E001212020FFF768FD0021A5
:101A10002020FFF764FD0AE001214803FFF752FD93
:101A200000214FF40050FFF74DFD00E000BF00BF64
:101A300010BD028802F08F020280CA884B881A43C8
:101A400003881A4302808A8882850A8802850122D7
:101A50008282BD4A904202D0BC4A904201D10A7AA9
:101A60000286704770B5002400220023058C4FF6D3
:101A7000FE7635400584028C8388048B4FF68F7583
:101A80002C400D882C43751E2A400D892A434D8811
:101A90002A43CD888586AC4DA84202D0AB4DA842E2
:101AA00013D14FF6F7752A404D892A434FF6FB753F
:101AB0002A408D882A4347F6FF652B4047F6FF559D
:101AC0002B408D892B43CD892B4383800483028453
:101AD00070BD70B5002400220023058C4FF6EF7610
:101AE00035400584028C8388048B48F6FF752C40B2
:101AF0000D884FF6FF7606EA05252C434FF6DF7575
:101B00002A400D8906EA05152A434D8806EA05157F
:101B10002A43CD8805878C4DA84202D08B4DA84220
:101B20001DD14FF67F752A404D894FF6FF7606EAA4
:101B300005152A434FF6BF752A408D8806EA05151C
:101B40002A4347F6FF352B4047F2FF752B408D891E
:101B500006EA85052B43CD8906EA85052B4383805C
:101B60000483028470BD70B5002400220023058C1C
:101B70004FF6FF6635400584028C8388848B4FF6D0
:101B80008F752C400D882C434FF6FF552A400D8948
:101B90004FF6FF7606EA05252A434D8806EA052515
:101BA0002A43CD888587684DA84202D0674DA84258
:101BB0001DD14FF2FF752A404D894FF6FF7606EA98
:101BC00005252A434FF6FF352A408D8806EA05256C
:101BD0002A4346F6FF752B4045F6FF752B408D894D
:101BE00006EA05152B43CD8906EA05152B438380AC
:101BF0008483028470BD70B5002400220023058C0C
:101C00004EF6FF7635400584028C8388848B48F637
:101C1000FF752C400D884FF6FF7606EA05252C430C
:101C20004DF6FF752A400D8906EA05352A434D8891
:101C300006EA05352A43CD88A0F84050424DA84217
:101C400002D0424DA84207D1C3F30D038D894FF650
:101C5000FF7606EA85152B4383808483028470BD5A
:101C6000828B4FF2FF331A408283828B4FF6FF73D1
:101C700003EA01231A4382837047F0B50C461546E8
:101C8000002100220026078C4EF6FF7C07EA0C0795
:101C90000784818B028C4FF6FF7707EA043640F603
:101CA000FF4739404FF6FF7707EA05274FF6FF7CDD
:101CB0000CEA033C47EA0C0739434DF6FF773A40FC
:101CC00046F480573A4381830284F0BD828B4FF6FD
:101CD000F3731A408283828B0A4382837047F0B584
:101CE0000C461546002100220026078C4FF6FF6C9B
:101CF00007EA0C070784818B028C4FF6FF7707EA0F
:101D000004264FF60C7739404FF6FF7707EA0317A2
:101D10002F4339434FF6FF573A4046F480773A4312
:101D200081830284F0BD028B4FF2FF331A4002839D
:101D3000028B4FF6FF7303EA01231A4302837047B5
:101D40000010004000FCFFBF002C014000340140A7
:101D5000F0B50C461546002100220026078C4FF6F0
:101D6000EF7C07EA0C070784018B028C4FF6FF77A4
:101D700007EA041640F6FF4739404FF6FF7707EAB7
:101D8000033739434FF6FF7707EA052739434FF604
:101D9000DF773A4046F010073A4301830284F0BDF2
:101DA000028B4FF6F3731A400283028B0A430283BD
:101DB0007047F0B50C46154600210022068C4FF600
:101DC000FE773E400684018B028C4FF60C76314044
:101DD0007E1C06EA03162E4331437E1E324044F039
:101DE0000106324301830284F0BD70B505460C46FE
:101DF000208850B92389A28861882846FFF7D9FF37
:101E0000E1882846FFF7CCFF25E0208804280AD186
:101E10002389A28861882846FFF79AFFE18828462F
:101E2000FFF781FF17E0208808280AD12389A288BC
:101E300061882846FFF753FFE1882846FFF746FFF1
:101E400009E02389A28861882846FFF716FFE18808
:101E50002846FFF705FF70BD2DE9F04105460C4609
:101E600000260127608808B9022600E00026A08825
:101E7000012801D1022700E001272088A0B9238989
:101E8000A28861882846FFF794FFE1882846FFF77B
:101E900087FF23893A4631462846FFF759FFE188F4
:101EA0002846FFF740FF13E02389A288618828466F
:101EB000FFF74EFFE1882846FFF735FF23893A46B2
:101EC00031462846FFF775FFE1882846FFF768FF8F
:101ED000BDE8F0810A884B881A438B881A43CB8867
:101EE0001A430B891A434B891A438B891A43A0F86A
:101EF000442070474FF6FF71818000210180C1802E
:101F00004180017270470021018041808180C18041
:101F1000018141818181C18170470021018041801F
:101F2000012181800021C180018170470021018051
:101F300041808180C180018141818181704721B1CF
:101F4000028842F00102028004E0028840F2FE337F
:101F50001A400280704731B1B0F8442042F4004288
:101F6000A0F8442005E0B0F84420C2F30E02A0F827
:101F7000442070471AB183890B43838102E083892F
:101F80008B43838170478182704741EA0203A0F846
:101F9000483070471AB183890B43838102E08389FB
:101FA0008B438381704701894FF6F872114001819C
:101FB00070470A46002101894FF68F73194011437B
:101FC0000181704730B504460D4629462046FFF78B
:101FD000F0FF208940F00700208130BD2DE9F0415D
:101FE00004460D4616461F46602D06D13B4601228B
:101FF00031462046FFF7ACFE05E03B460122314664
:102000002046FFF7D6FE29462046FFF7D2FF20895B
:1020100040F007002081BDE8F08170B50C4600213A
:102020000189C9B244EA02054FF6FF7606EA0326A3
:1020300035432943018170BD2DE9F04105460E4627
:1020400017469846002443463A4631462846FFF74D
:10205000E4FF2C894FF6F870044044F007044FF673
:102060008F70044044F070042C81BDE8F081F0B51D
:1020700004460D4616461F463B4632462946204634
:10208000FFF7CBFF208940F480402081F0BD01851F
:10209000828270470A460021018840F28F3319403E
:1020A000114301807047F0B50C4615461E460021CD
:1020B000002200230189028B038C4FF6F877394008
:1020C00021434FF6FC473A4040F201173A434FF69E
:1020D000DD773B404FF6FF7707EA06172F433B4378
:1020E000018102830384F0BD0A460021018B4FF673
:1020F0008F7319401143018370470A460021018BF9
:1021000048F6FF7319404FF6FF7303EA02231943A1
:10211000018370470A460021818B4FF68F73194067
:102120001143818370470A460021818B48F6FF7373
:1021300019404FF6FF7303EA022319438183704766
:1021400021B1028842F08002028004E0028840F25D
:102150007F331A400280704721B1828842F0040226
:10216000828004E082884FF6FB731A4082807047B9
:1021700021B1828842F00802828004E082884FF612
:10218000F7731A408280704721B1828842F00102C1
:10219000828004E082884FF6FE731A408280704786
:1021A0000A460021018B4FF6F77319401143018352
:1021B00070470A460021018B4FF2FF7319404FF61A
:1021C000FF7303EA02231943018370470A46002183
:1021D000818B4FF6F77319401143818370470A468C
:1021E0000021818B4FF2FF7319404FF6FF7303EA12
:1021F00002231943818370470A460021018B4FF661
:10220000FB7319401143018370470A460021018B7B
:102210004FF6FF3319404FF6FF7303EA02231943C9
:10222000018370470A460021818B4FF6FB731940EA
:102230001143818370470A460021818B4FF6FF339B
:1022400019404FF6FF7303EA022319438183704755
:102250000A460021018B4FF67F7319401143018319
:1022600070470A460021018BC1F30E014FF6FF7340
:1022700003EA02231943018370470A460021818B38
:102280004FF67F7319401143818370470A4600213E
:10229000818BC1F30E014FF6FF7303EA022319434A
:1022A000818370470A460021018C4FF6FD73194067
:1022B0001143018470470A460021018C4FF6F773E1
:1022C00019401143018470470A460021018C4FF6E2
:1022D000DF7319404FF6FF7303EA021319430184B9
:1022E00070470A460021018C4FF67F7319404FF664
:1022F000FF7303EA02131943018470470A46002161
:10230000018C4FF6FF5319404FF6FF7303EA022387
:102310001943018470470A460021018C4FF2FF7374
:1023200019404FF6FF7303EA0223194301847047F3
:102330000A460021018C4DF6FF7319404FF6FF73DA
:1023400003EA023319430184704710B5038C01245A
:102350008C40A3430384038C02FA01F4A4B2234308
:10236000038410BD10B5038C04248C40A343038464
:10237000038C02FA01F4A4B22343038410BD30B5E8
:10238000038C01248C40A343038409B1082912D192
:1023900000F1180303EB61031B684FF68F742340B1
:1023A00000F1180404EB6104236000F1180303EB4F
:1023B00061031A6018E00B1FC3F34E0400F1180309
:1023C0001B5948F6FF7423400C1FC4F34E0500F15F
:1023D000180463514FF6FF7303EA02240B1FC3F383
:1023E0004E0500F118035C5130BD21B1028842F066
:1023F0000202028004E0028840F2FD331A400280AB
:10240000704721B1028842F00402028004E0028891
:1024100040F2FB331A400280704721B1828842F0BB
:102420008002828004E082884FF67F731A408280A7
:102430007047028840F2F7331A40028002880A434C
:102440000280704782884FF68F731A40828082889C
:102450000A438280704702894FF6F8731A4002815E
:1024600002890A430281704702894FF67F731A403E
:10247000028102890A430281704781847047818505
:102480007047818670470187704781877047A0F841
:10249000401070470288D2B2028002880A4302804C
:1024A00070470146888E70470146088F7047014685
:1024B000888F70470146B1F8400070470146888C0C
:1024C00070470146088D704702460020138A0B4072
:1024D0000BB1012000E000207047CA430282704720
:1024E00030B50246002000230024158A05EA0103C6
:1024F000958905EA010413B10CB1012000E0002028
:1025000030BDCA430282704700204C490860091D53
:102510000860091D0860091D0860494847491431D1
:10252000086070478179002946D0444909680268EB
:102530009143424A1160111D0968026891433F4A64
:10254000121D116001793F4A1144D1F8001402684C
:10255000114302793B4B1A44C2F800143749083141
:10256000096802689143354A08321160111D0968F3
:1025700002689143314A0C321160417910290ED121
:10258000111F0968026811432C4A08321160111D9D
:10259000096802681143294A0C32116018E0417938
:1025A000284A1144D1F80014026811434279254B9E
:1025B0001A44C2F800140BE00179224A1144D1F800
:1025C00000140268914302791E4B1A44C2F80014A9
:1025D00070470021016001710C214171002181715E
:1025E00070471649103109680143144A10321160CE
:1025F000704701460020114A143212680A400AB19D
:10260000012000E0002070470C4914310860704739
:10261000014600200022094B1B6803EA0102074B18
:1026200014331B680B4013B10AB1012000E00020F5
:1026300070470249143108607047000000040140EF
:10264000FFFF07000000014010B501214806FEF71A
:1026500046FF00214FF00070FEF741FF10BD10B59E
:10266000014600200123FA4C2360231D1B6803F060
:10267000010303B984E00B78012B06D1F44B1B68EE
:1026800043F08003F24C236005E0F14B1B6823F01C
:102690008003EF4C23604B78012B06D1EC4B1B6879
:1026A00043F04003EA4C236005E0E94B1B6823F04C
:1026B0004003E74C23608B78012B06D1E44B1B6869
:1026C00043F02003E24C236005E0E14B1B6823F05C
:1026D0002003DF4C2360CB78012B06D1DC4B1B6839
:1026E00043F01003DA4C236005E0D94B1B6823F05C
:1026F0001003D74C23600B79012B06D1D44B1B68F8
:1027000043F00803D24C236005E0D14B1B6823F053
:102710000803CF4C23604B79012B06D1CC4B1B68AF
:1027200043F00403CA4C236005E0C94B1B6823F047
:102730000403C74C23608B799B07CC7943EA04637D
:102740000C7A43EA04434C7A43EA04534C89641EEE
:102750002343BF4C1C3423600120BD4B1B6823F076
:102760000103BB4C2360820201E0531E9AB2002A8F
:10277000FBDCB74B1B1D1B6803F0010303B10020FA
:1027800010BD10B50021037801229A4091B2B14AE0
:10279000126842F00102AF4B1A60AE4A1C32126856
:1027A0008A43AC4B1C331A608278CAB9A94A0C32EE
:1027B00012688A43A74B0C331A60C288438942EAE5
:1027C0000343A44A4032047842F8343082880389B3
:1027D00042EA03439F4A4032047802EBC40253604A
:1027E0008278012A19D19B4A0C3212680A43994B0C
:1027F0000C331A60C288838842EA0343954A403208
:10280000047842F834304289038942EA0343914A0A
:102810004032047802EBC402536042783AB98D4AE0
:10282000121D12688A438B4B1B1D1A6006E0894AF1
:10283000121D12680A43874B1B1D1A60828932B928
:10284000844A143212688A43824B14331A60828994
:10285000012A06D17F4A143212680A437D4B143391
:102860001A60827B012A06D17A4A1C3212680A4316
:10287000784B1C331A60774A126822F00102754BBC
:102880001A6010BD0021017041708170C17001712A
:1028900041718171C17103210172022141720121D3
:1028A0004181704739B16A4A143212680243684B59
:1028B00014331A6006E0664A143212688243644B8D
:1028C00014331A60704710B501460020604A083280
:1028D000126802F08062B2F1806F00D114E05C4AAD
:1028E0000832126802F00062B2F1006F01D10120DB
:1028F0000AE0574A0832126802F08052B2F1805F53
:1029000001D1022000E0042004287CD0514A803A02
:1029100002EB0012126802F001034E4A803A02EB09
:10292000001213600A7ABAB90A88C2F30A020A606E
:102930000A8852050A60474A803A02EB001213687F
:102940000C7A0A6822434C7A22431343414A803A64
:1029500002EB0012136016E04A6822F060424A60FF
:102960004A68D2004A603B4A803A02EB0012136880
:102970000C7A4A6822434C7A22431343354A803A00
:1029800002EB001213608A7A02F00F028A72314A57
:10299000803A02EB0012526822F00F032D4A803A6F
:1029A00002EB001253602B4A803A02EB001252688D
:1029B0008B7A1A43274B803B03EB00135A608A7BC8
:1029C00013064A7B43EA02430A7B43EA0223CA7A9C
:1029D0001343204A803A02EB001293608A7C13066C
:1029E0004A7C43EA02430A7C43EA0222CB7B13433C
:1029F000184A803A02EB0012D360164A803A02EB82
:102A00000012126800E006E042F00103114A803A29
:102A100002EB0012136010BD0146002021B1012914
:102A20001AD002293CD129E0094A0832126802F082
:102A3000010240EA8200064A0832126802F00202ED
:102A40001043034A08321268C2F38062104329E03F
:102A50000064004000660040F74A126802F4807289
:102A600040EA9210F44A126802F4007240EA12201E
:102A7000F14A1268C2F3C062104313E0EE4A1268D2
:102A800002F4803240EA9230EB4A126802F40032DB
:102A900040EA1240E84A1268C2F30072104301E0B3
:102AA000002000BF00BF20B1052804D0072806D1B0
:102AB00003E0022005E0002003E0012001E0002007
:102AC00000BF00BF704720B1012809D0022815D1EE
:102AD0000DE0D949096841F08001D74A11600EE044
:102AE000D549096841F40041D34A116007E0D24951
:102AF000096841F40001D04A116000E000BF00BF46
:102B0000704720B92021CC4A121D116003E020211A
:102B1000C94A0832116070470146002029B9C64AE7
:102B2000121D126802F0030008E0012905D1C24A13
:102B30000832126802F0030000E00020704710B570
:102B400004460B46BD4800EB0410006800F004008A
:102B50001872187A48B9B94800EB0410006840F2BE
:102B6000FF7101EA5050186008E0B44800EB04100F
:102B700000686FF0604101EAD0005860AF4800EB98
:102B80000410006800F002005872AC4800EB04101A
:102B9000406800F00F009872A84800EB04104068ED
:102BA000000AD874A54800EB04108068D872A348C6
:102BB00000EB04108068010A1973A04800EB0410B0
:102BC0008068010C59739D4800EB04108068000E6A
:102BD00098739A4800EB0410C068D873974800EBCC
:102BE0000410C068010A1974944800EB0410C0680E
:102BF000010C5974914800EB0410C068000E9874E1
:102C00002046FFF77EFF10BD00208B490839096878
:102C100041F00201884A083A116001201146096812
:102C200001F0020101B900207047002082490839F3
:102C3000096821F00201804A083A116000BF11467C
:102C4000096801F0020101B9012070470146002026
:102C5000794A103212680A400AB1012000E00020CF
:102C600070477549103109688143734A1032116009
:102C700070470246002002EA01030BB1012000E088
:102C80000020704770B504460025402C4FD00EDC64
:102C9000072C2CD006DC042C31D0052C19D0062CA6
:102CA00076D11DE0082C32D0202C71D137E0B4F55C
:102CB000806F54D006DCB4F5807F40D0B4F5007F3F
:102CC00066D144E0B4F5803F59D0B4F5003F5FD100
:102CD0004DE0594908680121FFF7CBFF054659E04F
:102CE000554908688915FFF7C4FF054652E0524967
:102CF00008684FF48031FFF7BCFF05464AE04E49B3
:102D0000091D08680821FFF7B4FF054642E04A495B
:102D1000091D08681021FFF7ACFF05463AE0464957
:102D2000083108680821FFF7A4FF054632E0424950
:102D3000083108681021FFF79CFF05462AE03E494C
:102D4000103108680121FFF794FF054622E03A4957
:102D5000103108680221FFF78CFF05461AE036495A
:102D6000103108680421FFF784FF054612E032495C
:102D7000091F08681021FFF77CFF05460AE02E496D
:102D8000091F08680821FFF774FF054602E0FFE706
:102D9000002500BF00BF284670BD40283ED00EDC95
:102DA000072827D006DC042829D0052819D00628B2
:102DB0005ED11AE0082827D0202859D129E0B0F5A3
:102DC000806F44D006DCB0F5807F2CD0B0F5007F5A
:102DD0004ED135E0B0F5803F40D0B0F5003F47D14F
:102DE00041E00121144A116043E04FF48071124A1E
:102DF00011603EE04FF480310F4A116039E0082144
:102E00000D4A121D116034E010210B4A121D116091
:102E10002FE00821084A083211602AE01021064AF2
:102E20000832116025E004491031096821F00101E0
:102E3000014A103211601CE008640040B065004097
:102E40000D49096821F002010B4A116011E00A499D
:102E5000096821F00401084A11600AE00821064AC5
:102E6000143A116005E01021034A143A116000E0A1
:102E700000BF00BF704700001864004030BF7047BB
:102E800020BF704740BF7047BFF36F8F7047BFF3DD
:102E90004F8F7047BFF35F8F704701DF7047EFF3CD
:102EA0001480704780F31488BFF36F8F7047EFF37F
:102EB0000980704780F309887047EFF308807047F6
:102EC00080F30888704762B6704772B67047EFF3B8
:102ED0001080704771B6704761B67047EFF313808A
:102EE000704780F311887047EFF31280704740BA43
:102EF000704700BA70470000034800470348044980
:102F0000044A054B704700003101000828EE0020FC
:102F100028F6002028F2002028F2002001F052FBC1
:102F200001F0EEFC01F09DFB01F0ABFD01F0DAFDDC
:102F300000F0BEFA01F0C8FC01F073FC01F018FECD
:102F400002F060F8642000F0C0FA0BF06AFE642022
:102F500000F0BBFA05F022FE0F200B4908804FF469
:102F60007A7000F0B2FA0DF0DFFA0120074908701C
:102F700009E006F0C3FE06F0DAFC06F023F905F0DE
:102F800030FD05F0FEFCF4E7440A0020DD000020DF
:102F9000704700BFFEE700BFFEE700BFFEE700BFCF
:102FA000FEE770477047704770477047704770473B
:102FB0007047704770477047704770477047704759
:102FC0007047704770477047704770477047704749
:102FD0007047704770477047704770477047704739
:102FE0007047704770477047704770477047704729
:102FF0007047704770477047704770477047704719
:1030000070477047704770477047704710B500248D
:103010000121FE48FFF764FA00287DD00121FB481A
:10302000FFF76FFAFA48007868B9FA480068401C60
:10303000F8490860084600680A2804D100200860A2
:103040000120F3490870F448006868B1F24800684C
:10305000401CF14908600846006842F2107188423D
:1030600002D90020EC490860EC48006868B1EB48E0
:103070000068401CE94908600846006842F2107187
:10308000884202D90020E5490860E5480078012817
:103090000FD1E4480068401CE24908600846006817
:1030A000022806D100200860DD4908700120DE49B1
:1030B0000870DE480078012816D1DD480068401C01
:1030C000DB490860DB480078012804D1DA48006851
:1030D000401CD9490860D9480078012804D1D84853
:1030E0000068401CD6490860D648007820B1D64810
:1030F0000068401CD4490860D448007820B1D44806
:103100000068401CD2490860D248007830B1D248EB
:103110000068401CD04900E010E00860CF4800780B
:1031200001280BD1CE480068401CCD4908600846F4
:103130000068B0F5FA7F01D90020086010BD10B515
:1031400040F22551C748FDF7E3F9002856D0C5489D
:10315000FDF77FF9C449C54A12788854C4480078FD
:1031600000284BD1C348007880B90846BF49097888
:10317000405CF52806D10120BE4908700020BE49F8
:1031800008703BE00020B949087037E0B748007884
:10319000401CB6490870B44800780978884224D1A8
:1031A0000020B44908700120B4490870AF48007885
:1031B000401EAD49085CFA2806D00120AE490870CF
:1031C0000020AA49087019E00020AB4908700120CE
:1031D000AB490870A5480078AA4908700020A349A7
:1031E00008700120A249087008E0A04800783C2837
:1031F00004DB00209F4908709C49087010BD10B581
:103200004FF40070FFF704FA38B39F48007840F09D
:1032100008009D49087000209C4908709C4908706E
:103220009C4908709C4908709C4908709C4908702A
:103230000DF0C8F801200DF0C5F802200DF0C2F81D
:1032400003200DF0BFF804200DF0BCF805200DF0B0
:10325000B9F84FF40070FFF7ECF910BD10B54FF45A
:103260008060FFF7D5F938B38748007840F0080050
:10327000854908700020854908708549087085498E
:1032800008708549087085490870854908700DF0F7
:1032900099F801200DF096F802200DF093F8032024
:1032A0000DF090F804200DF08DF805200DF08AF84F
:1032B0004FF48060FFF7BDF94FF40060FFF7A8F905
:1032C00038B37148007840F008006F49087000205A
:1032D0006E4908706E4908706E4908706E49087032
:1032E0006E4908706E4908700DF06CF801200DF001
:1032F00069F802200DF066F803200DF063F8042051
:103300000DF060F805200DF05DF84FF40060FFF758
:1033100090F94FF48050FFF77BF938B35A480078A2
:1033200040F0080058490870002058490870584972
:103330000870584908705849087058490870584929
:1033400008700DF03FF801200DF03CF802200DF060
:1033500039F803200DF036F804200DF033F805207D
:103360000DF030F84FF48050FFF763F910BD10B541
:103370004FF48030FFF75DF910BD00B585B0022035
:10338000FFF70BFD0020009001908DF808008DF8EC
:103390000A008DF813008DF80B0000218DF80C1039
:1033A0008DF80D108DF80E108DF80F108DF810108F
:1033B0008DF811108DF812106946FFF7C0FB3949DE
:1033C000009808809DF80B00374908709DF80C00A4
:1033D00048709DF80D0088709DF80E00C8709DF82B
:1033E0000F0008719DF8100048719DF81100887158
:1033F0009DF81200C8712B48008800F4F0602B493A
:1034000008800EF07DF805B000BD000000100040FF
:10341000FD000020F800002080010020980100201D
:10342000610000205C000020620000205C010020A0
:1034300064010020D4090020D80900200D0A0020D2
:10344000100A0020F1090020F4090020F8090020EA
:10345000FC090020DD090020E0090020DE0000203A
:103460001401002000380140B41D00204504002054
:10347000410400203E0400203F04002040040020BE
:1034800042040020460400202E0100201E040020DB
:103490001F0400202004002021040020220400201A
:1034A00023040020780A00203B0A0020460A00205E
:1034B00010B56FF00400FEF7EFF942F22830FEF786
:1034C000FFF90120FEF71BFA10BD10B504460120DC
:1034D000FEF7FAF91B48046000BF1A48006800288C
:1034E000FBD1801EFEF7F0F90020FEF7EDF910BDCC
:1034F0001448006820B113480068401E1149086054
:10350000704700B5FFF7F4FF00BD01B581B007E0DB
:103510000820009000BF0098411E00910028FAD1B9
:103520000198411E01910028F2D10CBD01B503E0C4
:103530004FF47A70FFF7E9FF0098411E00910028D0
:10354000F6D108BD0800002010B54FF48071F9488D
:10355000FDF7A6FBC8B90A20FFF7B7FF4FF480714B
:10356000F448FDF79DFB68B90A20FFF7AEFF4FF462
:103570008071F048FDF794FB08B9002010BDFFF7FB
:10358000E3FFFBE7FFF7E0FFF8E70120F6E710B500
:1035900004464FF40041E848FDF782FBA0420FD1FA
:1035A0000A20FFF792FF4FF40041E348FDF778FB54
:1035B000A04201D1012010BD2046FFF7E8FFFAE745
:1035C0000020F8E710B54FF40041DB48FDF768FB39
:1035D00001280DD10A20FFF778FF4FF40041D648AB
:1035E000FDF75EFB012800D110BDFFF7EBFFFBE705
:1035F0000020F9E710B54FF40041CF48FDF750FB2C
:1036000068B90A20FFF761FF4FF40041CA48FDF78F
:1036100047FB08B9012010BDFFF7ECFFFBE70020D6
:10362000F9E770B505460E46144684B9314628467A
:10363000FDF736FB48B9C820FFF767FF314628463B
:10364000FDF72EFB08B9002070BD0120FCE73146D4
:103650002846FDF725FB48B1C820FFF756FF314645
:103660002846FDF71DFB08B10120EDE70020EBE740
:1036700070B505460024162D7DD2DFE805F07C0BE1
:10368000233B536B849CB5CEF6F4F3F2F1F0EFEEEE
:10369000EDECEBEAA948007800F001020821A84807
:1036A000FFF7BFFF044634B1A448007800F0FE00E5
:1036B000A249087005E0A148007840F001009F4948
:1036C000087011E29D48007800F0020210219D4828
:1036D000FFF7A7FF044634B19848007800F0FD00DA
:1036E0009649087005E09548007840F0020093493B
:1036F0000870F9E19148407800F0040210219048E8
:10370000FFF78FFF044634B18C48007800F0FB00CF
:103710008A49087005E08948007840F0040087492C
:103720000870E1E18548407800F0080220218448D3
:10373000FFF777FF044634B18048007800F0F700C7
:103740007E49087005E07D48007840F008007B491C
:103750000870C9E17948407800F0100201217A48E8
:10376000FFF75FFF04463CB17448007800F0EF00BB
:103770007249087006E0B6E17048007840F0100029
:103780006E490870B0E16D48407800F020020221D7
:103790006D48FFF746FF044634B16848007800F0F2
:1037A000DF006649087005E06448007840F02000BA
:1037B0006249087098E16148407800F040024FF497
:1037C00000616248FFF72DFF044634B15B48007882
:1037D00000F0BF005949087005E05848007840F0F3
:1037E0004000564908707FE15448407800F080025C
:1037F0004FF480515548FFF714FF044634B14F4849
:10380000007800F07F004D49087005E04B480078D3
:1038100040F080004949087066E14848407800F06F
:1038200001024FF400514948FFF7FBFE04464CB13A
:103830004248407800F0FE0040494870002044496A
:10384000087005E03D48407840F001003B49487071
:103850004AE130E117E1FDE0E3E0C9E0AFE095E0E7
:103860007CE04FE036E01CE0FFE73448807800F071
:1038700002024FF480413548FFF7D3FE04464CB1B5
:103880002E48407800F0FD002C4948700020314956
:10389000087005E02948407840F002002749487048
:1038A00022E12648807800F004024FF400412748C6
:1038B000FFF7B7FE044634B12048407800F0FB0023
:1038C0001E49487005E01D48407840F004001B493F
:1038D000487009E11948807800F0080201211E486B
:1038E000FFF79FFE044634B11448407800F0F7001B
:1038F0001249487005E01148407840F008000F492F
:103900004870F1E00D48807800F010020221124862
:10391000FFF787FE044634B10848407800F0EF0016
:103920000649487005E00548407840F0100003491A
:103930004870D9E000140140001801400E0000203A
:103940000010014000080140000C0140001C014033
:103950000501002006010020002001406448807815
:1039600000F0200280216348FFF75BFE044634B17B
:103970005F48407800F0DF005D49487005E05C4832
:10398000407840F020005A494870ADE058488078AF
:1039900000F040024FF480715648FFF742FE0446A3
:1039A00034B15348407800F0BF005149487005E0F9
:1039B0004F48407840F040004D49487094E04C48F2
:1039C000807800F080024FF400714A48FFF729FE2A
:1039D000044634B14648407800F07F0044494870BE
:1039E00005E04348407840F08000414948707BE062
:1039F0003F48807800F001024FF480613D48FFF7B6
:103A000010FE044634B13A48807800F0FE00384990
:103A1000887005E03648807840F0010034498870AD
:103A200062E03348C07800F002024FF40061314890
:103A3000FFF7F7FD044634B12D48807800F0FD0013
:103A40002B49887005E02A48807840F00200284918
:103A5000887049E02648C07800F004024FF4805195
:103A60002448FFF7DEFD044634B12148807800F099
:103A7000FB001F49887005E01D48807840F0040075
:103A80001B49887030E01A48C07800F0080208210D
:103A90001948FFF7C6FD044634B11548807800F098
:103AA000F7001349887005E01148807840F008005D
:103AB0000F49887018E00E48C07800F010021021FD
:103AC0000D48FFF7AEFD044634B10948807800F098
:103AD000EF000749887005E00548807840F0100045
:103AE0000349887000E000BF00BF204670BD0000A1
:103AF0000E00002000180140001C014010B50446D3
:103B0000601E2C2824D2DFE800F0162433425160D6
:103B10006F7E8D9BA9B7C5F2F0EFEEEDECEBEAE915
:103B2000E8E7E6E5E4E3E2E1E0DFDEDDDCDBDAD98D
:103B3000D8D7D6D5D4D32021FD48FDF7CBF8012026
:103B4000FFF7C3FCFB48007840F00100F94908701A
:103B500083E24FF40041F848FDF7BCF80120FFF77D
:103B6000B4FCF448007840F00200F249087074E2B6
:103B70004FF48041F048FDF7ADF80120FFF7A5FCB8
:103B8000EC48007840F00400EA49087065E24FF420
:103B90000051E948FDF79EF80120FFF796FCE54843
:103BA000007840F00800E349087056E24FF4805175
:103BB000E148FDF78FF80120FFF787FCDD4800782A
:103BC00040F01000DB49087047E24FF40061DA482A
:103BD000FDF780F80120FFF778FCD648007840F028
:103BE0002000D449087038E24FF48061D248FDF7D4
:103BF00071F80120FFF769FCCE48007840F04000E2
:103C0000CC49087029E24FF40071CB48FDF762F807
:103C10000120FFF75AFCC748007840F08000C549F2
:103C200008701AE28021C548FDF754F80120FFF71B
:103C30004CFCC048407840F00100BE4948700CE29E
:103C40004021BE48FDF746F80120FFF73EFCB94889
:103C5000407840F00200B7494870FEE12021B748A3
:103C6000FDF738F80120FFF730FCB248407840F00B
:103C70000400B0494870F0E11021B048FDF72AF87F
:103C80000120FFF722FCAB48407840F00800A9492A
:103C90004870E2E10821A948FDF71CF80120FFF770
:103CA00014FCA448407840F01000A2494870D4E1C8
:103CB000CAE1C0E1B7E1AEE19EE18EE17EE16EE1F5
:103CC0005EE14EE13EE125E116E107E1F7E0E7E0E4
:103CD000D7E0C7E0B7E0A7E097E088E079E06AE0E6
:103CE0005BE04CE03DE02DE01DE00EE0FFE702214F
:103CF0009248FCF7EFFF0120FFF7E7FB8D48407883
:103D000040F020008B494870A7E101218B48FCF767
:103D1000E1FF0120FFF7D9FB8648407840F04000E2
:103D20008449487099E14FF480718548FCF7D2FFCF
:103D30000120FFF7CAFB7F48407840F080007D49B2
:103D400048708AE14FF480717B48FCF7C3FF012083
:103D5000FFF7BBFB7748807840F001007549887019
:103D60007BE180217448FCF7B5FF0120FFF7ADFB34
:103D70007048807840F002006E4988706DE1402103
:103D80006D48FCF7A7FF0120FFF79FFB694880788B
:103D900040F00400674988705FE120216648FCF725
:103DA00099FF0120FFF791FB6248807840F00800FE
:103DB0006049887051E110215F48FCF78BFF0120BA
:103DC000FFF783FB5B48807840F01000594988700A
:103DD00043E108215848FCF77DFF0120FFF775FB00
:103DE0005448807840F020005249887035E1042121
:103DF0005148FCF76FFF0120FFF767FB4D488078C3
:103E000040F040004B49887027E14FF400414B4897
:103E1000FCF760FF0120FFF758FB4648807840F030
:103E200080004449887018E14FF480414348FCF712
:103E300051FF0120FFF749FB3E48C07840F00100E8
:103E40003C49C87009E14FF400513C48FCF742FF7F
:103E50000120FFF73AFB3748C07840F002003549AF
:103E6000C870FAE04FF480513448FCF733FF01206A
:103E7000FFF72BFB2F48C07840F004002D49C87095
:103E8000EBE04FF400612D48FCF724FF0120FFF721
:103E90001CFB2848C07840F008002649C870DCE0C8
:103EA0004FF480612548FCF715FF0120FFF70DFB5B
:103EB0002048C07840F010001E49C870CDE04FF493
:103EC00000711E48FCF706FF0120FFF7FEFA1948B3
:103ED000C07840F020001749C870BEE01021164895
:103EE000FCF7F8FE0120FFF7F0FA1248C07840F026
:103EF00040001049C870B0E008210F48FCF7EAFE06
:103F00000120FFF7E2FA0B48C07840F08000094931
:103F1000C870A2E004210848FCF7DCFE0120FFF78E
:103F2000D4FA0448007940F001000249087194E095
:103F3000000C014015000020002001400014014049
:103F4000000801404FF40041FA48FCF7C3FE01208D
:103F5000FFF7BBFAF848007940F00200F649087113
:103F60007BE04FF48041F348FCF7B4FE0120FFF7FB
:103F7000ACFAF148007940F00400EF4908716CE0B8
:103F80004FF40051EB48FCF7A5FE0120FFF79DFA26
:103F9000E948007940F00800E74908715DE04FF416
:103FA0008051E448FCF796FE0120FFF78EFAE248C4
:103FB000007940F01000E04908714EE04FF40061D4
:103FC000DC48FCF787FE0120FFF77FFADA4800792A
:103FD00040F02000D84908713FE04FF48061D54897
:103FE000FCF778FE0120FFF770FAD348007940F023
:103FF0004000D149087130E04FF40071CD48FCF722
:1040000069FE0120FFF761FACB48007940F080009B
:10401000C949087121E08021C848FCF75BFE0120F6
:10402000FFF753FA19E00221C448FCF753FE0120C0
:10403000FFF74BFA11E04FF48041C148FCF74AFE0C
:104040000120FFF742FA08E04FF40071BD48FCF789
:1040500041FE0120FFF739FA00BF00BF10BD10B5C7
:104060000446601E2C2824D2DFE800F016243342D8
:1040700051606F7E8D9BA9B7C5F2F0EFEEEDECEBD2
:10408000EAE9E8E7E6E5E4E3E2E1E0DFDEDDDCDB08
:10409000DAD9D8D7D6D5D4D32021AA48FCF71CFE2C
:1040A0000120FFF712FAA448007800F0FE00A249B0
:1040B000087078E24FF40041A348FCF70DFE0120A0
:1040C000FFF703FA9C48007800F0FD009A49087059
:1040D00069E24FF480419C48FCF7FEFD0120FFF7A8
:1040E000F4F99548007800F0FB00934908705AE213
:1040F0004FF400519448FCF7EFFD0120FFF7E5F97C
:104100008D48007800F0F7008B4908704BE24FF4BF
:1041100080518D48FCF7E0FD0120FFF7D6F9864875
:10412000007800F0EF00844908703CE24FF4006131
:104130008548FCF7D1FD0120FFF7C7F97E480078DC
:1041400000F0DF007C4908702DE24FF480617E486A
:10415000FCF7C2FD0120FFF7B8F97748007800F0BE
:10416000BF00754908701EE24FF400717648FCF7F5
:10417000B3FD0120FFF7A9F96F48007800F07F0038
:104180006D4908700FE280216A48FCF7A5FD012007
:10419000FFF79BF96848407800F0FE0066494870D8
:1041A00001E240216348FCF797FD0120FFF78DF9FC
:1041B0006148407800F0FD005F494870F3E120213C
:1041C0005C48FCF789FD0120FFF77FF95A484078E9
:1041D00000F0FB0058494870E5E110215548FCF714
:1041E0007BFD0120FFF771F95348407800F0F7009C
:1041F00051494870D7E108214E48FCF76DFD012078
:10420000FFF763F94C48407800F0EF004A494870E6
:10421000C9E1BFE1B5E1ACE1A3E193E183E173E181
:1042200063E153E143E133E124E115E113E103E10B
:10423000F3E0E3E0D3E0C3E0B3E0A3E094E085E0A3
:104240006AE05BE04CE03DE02DE01DE00EE0FFE7C2
:1042500002213848FCF740FD0120FFF736F93648C7
:10426000407800F0DF00344948709CE1012131487A
:10427000FCF732FD0120FFF728F92F48407800F0C5
:10428000BF002D4948708EE14FF480712B48FCF738
:1042900023FD0120FFF719F92748407800F07F003F
:1042A000254948707FE14FF480712748FCF714FDE1
:1042B0000120FFF70AF92048807800F0FE001E492F
:1042C000887070E180212048FCF706FD0120FFF78F
:1042D000FCF81948807800F0FD001749887062E109
:1042E00040211948FCF7F8FC0120FFF7EEF81248CE
:1042F000807800F0FB001049887054E120211248BA
:10430000FCF7EAFC0120FFF7E0F80B48807800F0AA
:10431000F7000949887046E110210B48FCF7DCFCE6
:104320000120FFF7D2F80448807800F0EF0002493E
:10433000887038E100140140150000200008014099
:1043400000180140000C014000200140082197485E
:10435000FCF7C2FC0120FFF7B8F89548807800F020
:10436000DF00934988701EE104219048FCF7B4FCFB
:104370000120FFF7AAF88E48807800F0BF008C4932
:10438000887010E14FF400418A48FCF7A5FC012039
:10439000FFF79BF88648807800F07F00844988709A
:1043A00001E14FF480418348FCF796FC0120FFF7C0
:1043B0008CF87F48C07800F0FE007D49C870F2E0BC
:1043C0004FF400517B48FCF787FC0120FFF77DF894
:1043D0007748C07800F0FD007549C870E3E04FF4FD
:1043E00080517448FCF778FC0120FFF76EF87048A4
:1043F000C07800F0FB006E49C870D4E04FF4006153
:104400006C48FCF769FC0120FFF75FF86848C0784A
:1044100000F0F7006649C870C5E04FF48061654858
:10442000FCF75AFC0120FFF750F86148C07800F013
:10443000EF005F49C870B6E04FF400715D48FCF7CB
:104440004BFC0120FFF741F85948C07800F0DF002D
:104450005749C870A7E0A6E008215448FCF73CFC87
:104460000120FFF732F85248C07800F07F00504931
:10447000C87098E004214D48FCF72EFC0120FFF79E
:1044800024F84B48007900F0FE00494908718AE0A1
:104490004FF400414748FCF71FFC0120FFF715F8D7
:1044A0004348007900F0FD00414908717BE04FF47A
:1044B00080414048FCF710FC0120FFF706F83C481B
:1044C000007900F0FB003A4908716CE04FF40051AC
:1044D0003848FCF701FC0120FEF7F7FF344800796B
:1044E00000F0F700324908715DE04FF48051314827
:1044F000FCF7F2FB0120FEF7E8FF2D48007900F001
:10450000EF002B4908714EE04FF400612948FCF799
:10451000E3FB0120FEF7D9FF2548007900F0DF001A
:10452000234908713FE04FF480612248FCF7D4FB37
:104530000120FEF7CAFF1E48007900F0BF001C49A9
:10454000087130E04FF400711A48FCF7C5FB0120F8
:10455000FEF7BBFF1648007900F07F001449087190
:1045600021E080211448FCF7B7FB0120FEF7ADFFE6
:1045700019E002211048FCF7AFFB0120FEF7A5FF70
:1045800011E04FF480410D48FCF7A6FB0120FEF737
:104590009CFF08E04FF400710948FCF79DFB0120E7
:1045A000FEF793FF00BF00BF10BD000000200140D8
:1045B00015000020001401400008014000180140CF
:1045C000000C014010B5FCF7F3FD4FF48030FCF710
:1045D0000EFEFCF74BFE0446012C24D11020FBF705
:1045E000E3FF0220FBF7CAFF0020FCF788FE002053
:1045F000FCF797FEA002FCF78BFE4FF4E0112004BD
:10460000FCF760FE0120FCF769FE00BF3920FCF7D3
:1046100011FE0028FAD00220FCF763FE00BFFCF771
:1046200069FE0828FBD1012144F6FD10FCF730FF9C
:1046300001211F20FCF739FF0121FE48FCF76EFB2A
:104640000121FD48FCF76AFB01210846FCF713FF36
:1046500001210807FCF729FF01214806FCF725FF87
:1046600010BD0EB54FF40070ADF8000003208DF8BA
:10467000020018208DF803006946F048FCF77EFA26
:104680004FF48060ADF8000004208DF80300694607
:10469000EA48FCF773FA8020ADF8000003208DF89B
:1046A000020010208DF803006946E548FCF766FA21
:1046B0004FF40060ADF8000048208DF80300694613
:1046C000DE48FCF75BFA4FF48050ADF8000018208C
:1046D0008DF803006946D948FCF750FA04208DF89C
:1046E00007001020ADF8040001A9D448FCF746FAF1
:1046F00043F20300ADF8040001A9D248FCF73EFAEA
:1047000042F23F00ADF8040001A9CF48FCF736FAA9
:1047100041F6FC70ADF8040001A9CC48FCF72EFA74
:104720004FF65F70ADF8040001A9C548FCF726FA02
:104730000320ADF8040001A9C548FCF71FFA1020BA
:104740008DF80B0003208DF80A004FF48070ADF84F
:10475000080002A9B948FCF711FA4FF48071B74874
:10476000FCF7B8FA2020ADF8080002A9B548FCF71C
:1047700005FA2021B348FCF7ADFA4FF4F850ADF834
:10478000080002A9B048FCF7F9F94FF4F851AE4817
:10479000FCF7A0FA4FF6FF60ADF8080002A9AD489B
:1047A000FCF7ECF94FF6FF61AA48FCF793FA0320F7
:1047B000ADF8080002A9A548FCF7E0F90321A348D9
:1047C000FCF788FA4FF6FC70ADF8080002A9A04883
:1047D000FCF7D4F94FF6FC719D48FCF77BFA2020DA
:1047E000ADF8080002A99548FCF7C8F90EBD1CB544
:1047F000FDF78AFE6846FDF7ECFE4FF4804000901E
:1048000000208DF804000C208DF8050001208DF8A3
:1048100006006846FDF786FE0E210120FCF7B3FA7C
:104820001CBD1CB5FDF770FE6846FDF7D2FE0921E0
:104830000420FCF7A8FA0A210420FCF7A4FA0B21B3
:104840000420FCF7A0FA0C210420FCF79CFA4FF49A
:104850000070009000208DF804000C208DF80500F9
:1048600001208DF806006846FDF75CFE4FF480607D
:10487000009000208DF804000C208DF80500012028
:104880008DF806006846FDF74DFE4FF4006000907D
:1048900000208DF804000C208DF8050001208DF813
:1048A00006006846FDF73EFE4FF480500090002061
:1048B0008DF804000C208DF8050001208DF806000D
:1048C0006846FDF72FFE1CBD0EB54FF47A70ADF8AB
:1048D000040040F2CF20ADF800000020ADF8060043
:1048E000ADF8020069465C48FDF7A3F801221146C5
:1048F0005948FDF73FFB01215748FDF720FB0EBD4E
:1049000008B500214FF00060FCF75EFB4FF48060BB
:10491000FCF7A3FA19208DF8000001208DF80100A2
:1049200005208DF8020001208DF803006846FCF791
:104930009AFA1C208DF8000001208DF80100032058
:104940008DF8020001208DF803006846FCF78BFA11
:104950001D208DF8000001208DF8010002208DF847
:10496000020001208DF803006846FCF77CFA1E2047
:104970008DF8000001208DF8010004208DF8020060
:1049800001208DF803006846FCF76DFA2C208DF8A5
:10499000000001208DF8010000208DF802000120A8
:1049A0008DF803006846FCF75EFA32208DF80000AF
:1049B00001208DF801008DF802008DF80300684693
:1049C000FCF751FA36208DF8000002208DF8010026
:1049D0008DF8020001208DF803006846FCF743FAC9
:1049E00025208DF8000002208DF8010001208DF8AF
:1049F00002008DF803006846FCF735FA17208DF8A1
:104A0000000000208DF8010002208DF80200012036
:104A10008DF803006846FCF726FA28208DF8000080
:104A200000208DF8010003208DF8020001208DF890
:104A3000030013E000021800C00016000008014047
:104A4000001C0140000C0140001001400018014012
:104A50000020014000140140001000406846FCF7AF
:104A600002FA14208DF8000002208DF801000420C5
:104A70008DF8020001208DF803006846FCF7F3F979
:104A800008BD00B587B00020ADF81400ADF81600E1
:104A90004FF40070ADF818000020ADF81A0005A919
:104AA0003248FBF753FC4FF4E13001900020ADF8A1
:104AB0000800ADF80A00ADF80C00ADF810000C20AD
:104AC000ADF80E0001A92948FBF7E9FB012240F2ED
:104AD00025512648FBF75DFC01212448FBF74DFCDE
:104AE00007B000BD00B587B004A8FDF7CBFE0020DD
:104AF0008DF810008DF811008DF812008DF813005C
:104B00008DF814008DF815008DF816008DF817003B
:104B100002208DF8180004208DF81900ADF81A0055
:104B200004A8FDF79CFD00208DF800008DF8010021
:104B300001208DF802000020ADF80400ADF8060059
:104B4000ADF80800ADF80A00ADF80C0001208DF8B2
:104B50000E006846FDF715FE0220FEF71EF9012142
:104B60000220FDF79FFE07B000BD000000380140A5
:104B700000B587B06846FDF7BDF903A8FDF7C3F996
:104B80000020ADF80600ADF8020042F20F70ADF85B
:104B900004000120ADF800007020ADF80C000120E9
:104BA000ADF80E0041F28830ADF812000020ADF8EB
:104BB00014004FF08040FCF7D1FE69464FF0804072
:104BC000FCF737FF01218807FDF79BFC0122114606
:104BD0009007FDF7CFF903A94FF08040FCF742FFA3
:104BE00001218807FDF7B7F9AF48FCF7B7FE694622
:104BF000AD48FCF71EFF0121AB48FDF782FC012206
:104C00001146A948FDF7B6F903A9A748FCF72AFF02
:104C10000121A548FDF79FF9A448FCF79FFE6946CE
:104C2000A248FCF706FF0121A048FDF76AFC01221B
:104C300011469E48FDF79EF903A99C48FCF793FF97
:104C400001219A48FDF787F90020ADF80600ADF87C
:104C5000020042F20F70ADF804000120ADF8000030
:104C60007020ADF80C000120ADF80E0041F2883044
:104C7000ADF812000020ADF814008D48FCF76EFE70
:104C800069468B48FCF7D5FE01218948FDF739FCC0
:104C9000012211468648FDF76DF903A98448FCF707
:104CA00062FF01218248FDF756F900214FF0804054
:104CB000FDF745F900217C48FDF741F900217C48CA
:104CC000FDF73DF900217948FDF739F907B000BD3E
:104CD00000B587B06846FDF70DF903A8FDF713F995
:104CE0000020ADF80600ADF8020042F20F70ADF8FA
:104CF00004000120ADF800007020ADF80C00012088
:104D0000ADF80E0041F28830ADF812000020ADF889
:104D100014006548FCF722FE69466348FCF789FEEB
:104D200001216148FDF7EDFB012211465E48FDF7C8
:104D300021F903A95C48FCF795FE01215A48FDF7CB
:104D40000AF95A48FCF70AFE69465848FCF771FE12
:104D500001215648FDF7D5FB012211465348FDF7C6
:104D600009F903A95148FCF7FEFE01214F48FDF760
:104D7000F2F84FF08040FCF7F1FD69464FF08040BB
:104D8000FCF757FE01218807FDF7BBFB0122114606
:104D90009007FDF7EFF803A94FF08040FCF7E3FE22
:104DA00001218807FDF7D7F84248FCF7D7FD69468F
:104DB0004048FCF73EFE01213E48FDF7A2FB0122E0
:104DC00011463C48FDF7D6F803A93A48FCF713FF13
:104DD00001213848FDF7BFF80020ADF80600ADF816
:104DE000020042F20F70ADF804000120ADF800009F
:104DF00000208DF808007020ADF80C000120ADF8FF
:104E00000E0041F28830ADF812000020ADF8140019
:104E10002748FCF7A3FD69462548FCF70AFE012157
:104E20002348FDF76EFB012211462148FDF7A2F849
:104E300003A91F48FCF797FE01211D48FDF78BF8D9
:104E40001D48FCF78BFD69461B48FCF7F2FD01216C
:104E50001948FDF756FB012211461748FDF78AF85D
:104E600003A91548FCF7FEFD01211348FDF773F86F
:104E700000210D48FDF763F800210D48FDF75FF8AC
:104E800000210A48FDF75BF800214FF08040FDF754
:104E900056F800210748FDF752F800210648FDF7B3
:104EA0004EF807B000BD00000004004000080040BC
:104EB000002C0140000C00400034014070B5054654
:104EC000002405E0601CC4B2C82C01DD002070BDC8
:104ED00002213A48FCF791FC0028F3D029463748D4
:104EE000FCF738FC002405E0601CC4B2C82C01DDCE
:104EF0000020ECE701213148FCF77FFC0028F3D0CB
:104F00002E48FCF729FCC0B2E1E700B587B00121CB
:104F10000820FCF7BDFA01218803FCF7C6FA4FF41C
:104F20006040ADF8180018208DF81B0003208DF8A4
:104F30001A0006A92248FBF721FE4FF460412048E1
:104F4000FBF7C8FE0020ADF804004FF48270ADF806
:104F500006000020ADF808000220ADF80A0001208C
:104F6000ADF80C004002ADF80E003820ADF810008E
:104F70000020ADF812000720ADF8140001A90F4879
:104F8000FCF71AFB01210D48FCF7B3FBFF20FFF7EC
:104F900095FF07B000BD10B50446084800884FF6DD
:104FA000C7710840054908800846008820430880EA
:104FB00001210248FCF79DFB10BD000000380040B5
:104FC000000C014010B500240020CF49086090205B
:104FD000FFF774FF0020FFF771FF0020FFF76EFF5F
:104FE0000020FFF76BFFFF20FFF768FF44EA002473
:104FF000FF20FFF763FF04430120C449C1F8B0015B
:10500000204610BD08B501210820FCF741FA4FF4F5
:105010008050ADF8000010208DF8030003208DF8BB
:1050200002006946BA48FBF7A9FD4FF48051B84821
:10503000FBF750FE0120B4490860FFF766FF00202F
:10504000FFF7A9FFFFF7BEFFB249088008BD10B502
:1050500000240020AC4908600520FFF72FFFFF2047
:10506000FFF72CFF04460120A849C1F8B0012046F3
:1050700010BD10B504460020A34908600120FFF7C9
:105080001DFF2046FFF71AFF0120A049C1F8B0011B
:1050900010BD10B500209C4908600620FFF70EFFE8
:1050A00001209A49C1F8B00110BD10B50020964901
:1050B00008600420FFF702FF01209449C1F8B00105
:1050C00010BD2DE9F04106460C46174600208E49DA
:1050D00008600320FFF7F2FEC4F30740FFF7EEFE7F
:1050E000C4F30720FFF7EAFEE0B2FFF7E7FE002572
:1050F00005E0FF20FFF7E2FE7055681C85B2BD4257
:10510000F7DB012080490860BDE8F08110B500BFE1
:10511000FFF79DFF00F001000028F9D110BD2DE937
:10512000F04106460C461746FFF7B3FF00207649CC
:1051300008600220FFF7C2FEC4F30740FFF7BEFE7F
:10514000C4F30720FFF7BAFEE0B2FFF7B7FE002571
:1051500004E0705DFFF7B2FE681C85B2BD42F8DB6B
:10516000012069490860FFF7D1FFBDE8F0812DE912
:10517000F04107460E461446F0B2C0F58075AC42C9
:1051800000DC254612E02A4631463846FFF7C7FFC5
:10519000AC4200D10BE02F442E44601B84B2B4F526
:1051A000807F02DD4FF4807500E02546EBE700BF0D
:1051B000BDE8F08110B504462403FFF76AFFFFF74E
:1051C000A5FF0020504908602020FFF777FEC4F3B8
:1051D0000740FFF773FEC4F30720FFF76FFEE0B24E
:1051E000FFF76CFE01204949C1F8B001FFF78EFFBF
:1051F00010BD2DE9F05F81460F461646DFF818B165
:105200004FEA1738C7F30B0ACAF58054A64200DCF0
:10521000344644E04FEA08314FF480525846FFF7D5
:1052200050FF002508E00AEB05001BF80000FF28EE
:1052300000D003E0681C85B2A542F4DB00BFA542A4
:1052400016DA4046FFF7B6FF002507E019F805001B
:1052500005EB0A010BF80100681C85B2A542F5DBDD
:105260004FEA08314FF480525846FFF780FF04E0C0
:10527000224639464846FFF77AFFA64200D10FE0A2
:1052800008F101084FF0000AA1442744301B86B200
:10529000B6F5805F02DD4FF4805400E03446B9E794
:1052A00000BFBDE8F09F10B5FFF7F3FEFFF72EFF3C
:1052B000002015490860C720FFF700FE01201349B0
:1052C000C1F8B001FFF722FF10BD10B500200E4954
:1052D0000860B920FFF7F2FD01200C49C1F8B001C8
:1052E0000320FEF712F910BD10B500200649086032
:1052F000AB20FFF7E3FD01200449C1F8B001032012
:10530000FEF703F910BD0000B08121420080214268
:10531000000C01401A000020840A002010B500246F
:1053200000BF04E02046FEF7E9FB601CC4B2232C5A
:10533000F8DBFE480078062879DAFD48FB49097851
:10534000405C042876D005DC58B1012871D00228D1
:105350000FD18EE008284BD010282AD02028F7D172
:1053600008E0F2480078401CF04908700020F1493C
:105370000870BCE0F0480068F049884208D1EB486A
:105380000078401CE94908700020EA4908700FE0E5
:10539000E848007860B90120E6490870E448401EFA
:1053A000006A642100FB01F2E449002009F043FD9A
:1053B0009DE0E1488068E149884208D1DB480078F7
:1053C000401CDA4908700020DA4908700FE0D9481B
:1053D000007860B90120D7490870D548401E806A1E
:1053E000642100FB01F2D549022009F024FD7EE092
:1053F000D1484068D149884208D1CC480078401C47
:10540000CA4908700020CB4908700FE0C9480078ED
:1054100060B90120C7490870C548401E406A642130
:1054200000FB01F2C549012009F005FD5FE05FE0E6
:1054300000E03DE0C048C068C049884208D1BB4890
:105440000078401CB94908700020BA4908700FE084
:10545000B848007860B90120B6490870B448401EC9
:10546000C06A642100FB01F2B449032009F0E3FCA7
:105470003DE0B1480069B149884208D1AB480078A5
:10548000401CAA4908700020AA4908700FE0A948EA
:10549000007860B90120A7490870A548401E006B3C
:1054A000642100FB01F2A549042009F0C4FC1EE0C0
:1054B000A1484069A149884208D19C480078401C15
:1054C0009A49087000209B4908700FE099480078BD
:1054D00060B90120974908709548401E406B6421CF
:1054E00000FB01F29549052009F0A5FC00BF3DE055
:1054F00000200AF019FF00209149087001200AF0ED
:1055000013FF00208E49487002200AF00DFF002092
:105510008B49887003200AF007FF00208849C87073
:1055200004200AF001FF00208549087105200AF0D7
:10553000FBFE0020824948717C4908707D49087053
:105540000120804908708048007818B100207E4909
:10555000087002E000207D49087000207C49087036
:1055600001207C49087000207B49087010BD022092
:105570007A49087000207A4908707A49087075499C
:105580000870794908707949087079490870794933
:10559000087079490870794908706C490870784931
:1055A0000870784908707849087078490860784927
:1055B00008707849088078490870784908707849F7
:1055C0000870784908607849086078490870784917
:1055D00008707849087078490870784908707849E7
:1055E00008707849087078490870704701205E4952
:1055F00008705E4908705E4908705E4908700020B6
:1056000072490870724908705449087071480088DE
:105610004FF6FF5108406F4908806F48007800F04E
:10562000BF0040F080006C490870704700206B4953
:1056300008700120494908706748007800F07F0031
:1056400040F0400064490870704700B5FFF78FFFD5
:105650006148007800F03F005F49087000BD10B558
:10566000002400BF0FE004EB84005D4901EB8000E3
:10567000007C18B101205B49087006E00020594900
:105680000870601CC4B2032CEDDB00BF55480078E5
:1056900001284AD133480078012846D1002421E06E
:1056A00004EB84004E4901EB8000007CA8B1224845
:1056B000006804EB84014A4A52F8211088420FD353
:1056C0001D48006804EB840102EB8101896888426F
:1056D00006D8601C4449087006E000204249087062
:1056E000601CC4B2032CDBDB00BF3F480078D8B19C
:1056F000114841683C480078401E00EB8000384A61
:1057000002EB8000C06881420BD80B4841683648E4
:105710000078401E00EB800002EB80004068814270
:1057200069D20120314964E069E075E0340100206C
:10573000991E002084000020E401002040420F0058
:105740001B0A002078000020110100205C010020CD
:1057500077000020100100200F01002035000020FC
:10576000E3000020DE0000202600002021000020B1
:1057700022000020230000208E0000208F00002047
:10578000ED0000208D0100208C0100208001002010
:10579000840100205E010020910100209201002080
:1057A000930100201401002098010020970100209F
:1057B0007401002072010020730100206D0100209F
:1057C00076010020080A00200A0A00202500002097
:1057D000360000202C0100201A0100204200002089
:1057E0005C1E0020000100200401002003010020B5
:1057F00001E0087013E00020FE4908700FE0FE4849
:105800004068FE49884203D90120FA49087006E041
:105810000020F849087002E00020F9490870F548B6
:10582000007820B3F748007840F00200F54908708E
:105830000020F5490870F5490870F5490870F549E8
:105840000870F5490870F54908700AF0BBFD0120A1
:105850000AF0B8FD02200AF0B5FD03200AF0B2FDFF
:1058600004200AF0AFFD05200AF0ACFD05E0E54894
:10587000007800F0FD00E349087010BD70B50446E3
:105880000D461646DD48201AE549086032460846AE
:10589000016828460AF0B6FC70BD70B505460C4696
:1058A00016463C2D02D02846FEF728F93C2C0CD099
:1058B0002046FEF7D4FB0F2E07D1DA480078401CB3
:1058C000D84908700120D849085570BD0020002132
:1058D000D64A1180D64A1170D649097800293CDD94
:1058E000D4490978082916DDD2490978491E01EB07
:1058F0004101D14A02EB81014989CC4A1180CD494D
:105900000978491E01EB4101CB4A02EB8101097A7A
:10591000C74A117021E000201CE000EB4001C64A9C
:1059200002EB81014978C34A1278914210D100EB11
:105930004001C14A02EB81014989BC4A118000EB58
:105940004001BD4A02EB8101097AB94A117003E0B6
:10595000411CC8B20828E0DB00BF704710B5002426
:10596000B64840780A287DD2DFE800F07C050C13A9
:10597000333E5FF0EFEE0320B14908700120B149DA
:10598000087001E20220AE4908700120AE4908709B
:10599000FAE1AE48007801281AD1AD480078B8B9CC
:1059A0000120AC490870A6480078022806D10120E1
:1059B000A54908700020A349087009E0A0480078B4
:1059C000032805D101209F49087000209E490870D6
:1059D000DAE19E480078012805D19D48007810B989
:1059E00001209D490870CFE19848007801281BD11B
:1059F00097480078C0B90020984908709849086015
:105A00009849087098490880984908809849088002
:105A10009849087001209849087098480078012832
:105A200002D1022095490870AEE18448807881490E
:105A30000870012244F2E0017E48FFF7DAFBFFF72D
:105A400045FF7A48008800287DDD072277480188D5
:105A50008B48FFF736FB8A4800788A4908708848E7
:105A6000407800E08FE14870854880788449C978A3
:105A700040EA01208249097940EA01408049497998
:105A800040EA01607F4948607D48807908720020C3
:105A90007D49087015E165480088C01D7A4A127872
:105AA000102303FB02011A467548FFF70AFB7448EE
:105AB000017874480C30744A127800EB421001707F
:105AC0006F4841786F480C306F4A127800EB4210F3
:105AD00041706B4881786B480C306B4A127800EB50
